:020000040800F2
:10880000000001207DA000086D9E0008739E0008F6
:10881000799E00087F9E0008859E000800000000E9
:108820000000000000000000000000008B9E000817
:10883000999E000800000000A79E0008B59E000851
:10884000CDA00008CDA00008CDA00008CDA0000854
:10885000CDA00008CDA00008CDA00008CDA0000844
:10886000CDA00008CDA00008CDA00008CDA0000834
:10887000CDA00008CDA00008CDA00008CDA0000824
:10888000CDA00008CDA00008CDA00008CDA0000814
:10889000CDA00008CDA00008CDA00008C19E000812
:1088A000CDA00008CDA00008CDA00008CDA00008F4
:1088B000CDA000080000000000000000CDA00008CE
:1088C000CDA000080000000000000000CDA00008BE
:1088D00000000000CDA00008CDA0000800000000AE
:1088E000CDA00008CDA0000800000000000000009E
:1088F0000000000000000000000000000000000078
:10890000000000000000000000000000CDA00008F2
:108910000000000000000000CDA00008CDA000086D
:10892000CDA00008CDA00008CDA00008CDA0000873
:10893000CDA00008000000000000000000000000C2
:10894000CDA00008CDA00008CDA00008CDA0000853
:10895000CDA00008CDA00008CDA00008CDA0000843
:10896000CDA00008CDA00008CDA0000800000000A8
:10897000CDA00008CDA0000800000000000000000D
:0C898000CDA00008CDA00008CDA000088C
:1089900010B5054C237833B9044B13B10448AFF339
:1089A00000800123237010BDDC01002000000000C6
:1089B000C0F1000808B5034B1BB103490348AFF3EE
:1089C000008008BD00000000E0010020C0F10008A8
:1089D000034613F8012B002AFBD1181A01387047FF
:1089E00001F0FF01102A2BDB10F0070F08D010F860
:1089F000013B013A8B422DD010F0070F42B3F6D164
:108A0000F0B441EA012141EA014122F007047FF07C
:108A100000070023F0E80256083C85EA010586EAD3
:108A2000010685FA47F5A3FA87F586FA47F6A5FA0F
:108A300087F68EB9EED1F0BC01F0FF0102F007021B
:108A400032B110F8013B013A83EA010313B1F8D1C6
:108A50000020704701387047002D06BF35460338A7
:108A6000073815F0010F07D1013015F4807F02BFE0
:108A7000013015F4C03F0130F0BC0138704700BF31
:108A800081F0004102E000BF83F0004330B54FEABF
:108A900041044FEA430594EA050F08BF90EA020F2C
:108AA0001FBF54EA000C55EA020C7FEA645C7FEABF
:108AB000655C00F0E2804FEA5454D4EB5555B8BFE2
:108AC0006D420CDD2C4480EA020281EA030382EA53
:108AD000000083EA010180EA020281EA0303362DE5
:108AE00088BF30BD11F0004F4FEA01314FF4801CB8
:108AF0004CEA113102D0404261EB410113F0004FCA
:108B00004FEA03334CEA133302D0524263EB430380
:108B100094EA050F00F0A780A4F10104D5F1200E1E
:108B20000DDB02FA0EFC22FA05F2801841F1000179
:108B300003FA0EF2801843FA05F359410EE0A5F14D
:108B400020050EF1200E012A03FA0EFC28BF4CF07E
:108B5000020C43FA05F3C01851EBE37101F0004534
:108B600007D54FF0000EDCF1000C7EEB00006EEB41
:108B70000101B1F5801F1BD3B1F5001F0CD34908CB
:108B80005FEA30004FEA3C0C04F101044FEA445222
:108B900012F5800F80F09A80BCF1004F08BF5FEAA9
:108BA000500C50F1000041EB045141EA050130BD89
:108BB0005FEA4C0C404141EB0101013C28BFB1F59B
:108BC000801FE9D291F0000F04BF01460020B1FAE6
:108BD00081F308BF2033A3F10B03B3F120020CDAB9
:108BE0000C3208DD02F1140CC2F10C0201FA0CF097
:108BF00021FA02F10CE002F11402D8BFC2F1200CFC
:108C000001FA02F120FA0CFCDCBF41EA0C019040B1
:108C1000E41AA2BF01EB0451294330BD6FEA0404FA
:108C20001F3C1CDA0C340EDC04F11404C4F12002E5
:108C300020FA04F001FA02F340EA030021FA04F3F7
:108C400045EA030130BDC4F10C04C4F1200220FA4E
:108C500002F001FA04F340EA0300294630BD21FA8C
:108C600004F0294630BD94F0000F83F4801306BF52
:108C700081F480110134013D4EE77FEA645C18BF46
:108C80007FEA655C29D094EA050F08BF90EA020FDD
:108C900005D054EA000C04BF1946104630BD91EAD5
:108CA000030F1EBF0021002030BD5FEA545C05D1D8
:108CB0004000494128BF41F0004130BD14F5800417
:108CC0003CBF01F5801130BD01F0004545F0FE418B
:108CD00041F470014FF0000030BD7FEA645C1ABFC0
:108CE000194610467FEA655C1CBF0B46024650EAF7
:108CF000013406BF52EA033591EA030F41F4002123
:108D000030BD00BF90F0000F04BF0021704730B5A8
:108D10004FF4806404F132044FF000054FF000017D
:108D200050E700BF90F0000F04BF0021704730B53E
:108D30004FF4806404F1320410F0004548BF404213
:108D40004FF000013EE700BF42004FEAE2014FEA68
:108D500031014FEA02701FBF12F07F4393F07F4F43
:108D600081F06051704732F07F4208BF704793F046
:108D70007F4F04BF41F40021704730B54FF4607459
:108D800001F0004521F000411CE700BF50EA01025C
:108D900008BF704730B54FF000050AE050EA010205
:108DA00008BF704730B511F0004502D5404261EB75
:108DB00041014FF4806404F132045FEA915C3FF4B6
:108DC000D8AE4FF003025FEADC0C18BF03325FEA53
:108DD000DC0C18BF033202EBDC02C2F1200300FA04
:108DE00003FC20FA02F001FA03FE40EA0E0021FA29
:108DF00002F11444BDE600BF70B54FF0FF0C4CF417
:108E0000E06C1CEA11541DBF1CEA135594EA0C0FC8
:108E100095EA0C0F00F0DEF82C4481EA030621EA03
:108E20004C5123EA4C5350EA013518BF52EA03353E
:108E300041F4801143F4801338D0A0FB02CE4FF0F0
:108E40000005E1FB02E506F00042E0FB03E54FF020
:108E50000006E1FB03569CF0000F18BF4EF0010E18
:108E6000A4F1FF04B6F5007F64F5407404D25FEA14
:108E70004E0E6D4146EB060642EAC62141EA5551C7
:108E80004FEAC52040EA5E504FEACE2EB4F1FD0C09
:108E900088BFBCF5E06F1ED8BEF1004F08BF5FEA87
:108EA000500E50F1000041EB045170BD06F0004639
:108EB00046EA010140EA020081EA0301B4EB5C04E6
:108EC000C2BFD4EB0C0541EA045170BD41F48011DE
:108ED0004FF0000E013C00F3AB8014F1360FDEBF03
:108EE000002001F0004170BDC4F10004203C35DADF
:108EF0000C341BDC04F11404C4F1200500FA05F362
:108F000020FA04F001FA05F240EA020001F0004202
:108F100021F0004110EBD37021FA04F642EB060178
:108F20005EEA430E08BF20EAD37070BDC4F10C04A2
:108F3000C4F1200500FA04F320FA05F001FA04F266
:108F400040EA020001F0004110EBD37041F1000152
:108F50005EEA430E08BF20EAD37070BDC4F120055D
:108F600000FA05F24EEA020E20FA04F301FA05F2C5
:108F700043EA020321FA04F001F0004121FA04F26D
:108F800020EA020000EBD3705EEA430E08BF20EA3D
:108F9000D37070BD94F0000F0FD101F00046400077
:108FA00041EB010111F4801F08BF013CF7D041EAF9
:108FB000060195F0000F18BF704703F000465200FD
:108FC00043EB030313F4801F08BF013DF7D043EACE
:108FD0000603704794EA0C0F0CEA135518BF95EA84
:108FE0000C0F0CD050EA410618BF52EA4306D1D10B
:108FF00081EA030101F000414FF0000070BD50EA2A
:10900000410606BF1046194652EA430619D094EAB3
:109010000C0F02D150EA013613D195EA0C0F05D19D
:1090200052EA03361CBF104619460AD181EA0301F1
:1090300001F0004141F0FE4141F470014FF00000A9
:1090400070BD41F0FE4141F4780170BD70B54FF044
:10905000FF0C4CF4E06C1CEA11541DBF1CEA1355C4
:1090600094EA0C0F95EA0C0F00F0A7F8A4EB0504A6
:1090700081EA030E52EA03354FEA013100F088809D
:109080004FEA03334FF0805545EA131343EA126366
:109090004FEA022245EA111545EA10654FEA00261B
:1090A0000EF000419D4208BF964244F1FD0404F5D4
:1090B000407402D25B084FEA3202B61A65EB030530
:1090C0005B084FEA32024FF480104FF4002CB6EBED
:1090D000020E75EB030E22BFB61A754640EA0C006D
:1090E0005B084FEA3202B6EB020E75EB030E22BFAD
:1090F000B61A754640EA5C005B084FEA3202B6EBEE
:10910000020E75EB030E22BFB61A754640EA9C00AC
:109110005B084FEA3202B6EB020E75EB030E22BF7C
:10912000B61A754640EADC0055EA060E18D04FEA3A
:10913000051545EA16754FEA06164FEAC30343EADA
:1091400052734FEAC2025FEA1C1CC0D111F4801FA7
:109150000BD141EA00014FF000004FF0004CB6E7A0
:1091600011F4801F04BF01430020B4F1FD0C88BF3F
:10917000BCF5E06F3FF6AFAEB5EB030C04BFB6EB4A
:10918000020C5FEA500C50F1000041EB045170BD3D
:109190000EF0004E4EEA113114EB5C04C2BFD4EB6A
:1091A0000C0541EA045170BD41F480114FF0000EEE
:1091B000013C90E645EA060E8DE60CEA135594EA6A
:1091C0000C0F08BF95EA0C0F3FF43BAF94EA0C0F6D
:1091D0000AD150EA01347FF434AF95EA0C0F7FF4E2
:1091E00025AF104619462CE795EA0C0F06D152EA36
:1091F00003353FF4FDAE1046194622E750EA41061A
:1092000018BF52EA43067FF4C5AE50EA41047FF42A
:109210000DAF52EA43057FF4EBAE12E74FF0FF3C8F
:1092200006E000BF4FF0010C02E000BF4FF0010C60
:109230004DF804CD4FEA410C7FEA6C5C4FEA430CD9
:1092400018BF7FEA6C5C1BD001B050EA410C0CBF28
:1092500052EA430C91EA030F02BF90EA020F00208A
:10926000704710F1000F91EA030F58BF994208BFF1
:1092700090422CBFD8176FEAE37040F001007047AE
:109280004FEA410C7FEA6C5C02D150EA013C07D105
:109290004FEA430C7FEA6C5CD6D152EA033CD3D050
:1092A0005DF8040B704700BF8446104662468C464A
:1092B0001946634600E000BF01B5FFF7B7FF00287D
:1092C00048BF10F1000F01BD4DF808EDFFF7F4FFA6
:1092D0000CBF012000205DF808FB00BF4DF808ED31
:1092E000FFF7EAFF34BF012000205DF808FB00BF54
:1092F0004DF808EDFFF7E0FF94BF012000205DF876
:1093000008FB00BF4DF808EDFFF7CEFF94BF01202A
:1093100000205DF808FB00BF4DF808EDFFF7C4FF23
:1093200034BF012000205DF808FB00BF4FEA410C6C
:109330007FEA6C5C02D150EA013C0AD14FEA430C4F
:109340007FEA6C5C02D152EA033C02D14FF000008C
:1093500070474FF0010070474FEA410212F50012CA
:1093600015D211D56FF47873B3EB625212D94FEA6C
:10937000C12343F0004343EA505311F0004F23FA56
:1093800002F018BF404270474FF00000704750EAAB
:10939000013005D111F0004008BF6FF00040704768
:1093A0004FF00000704700BF53B94AB9002908BF09
:1093B00000281CBF4FF0FF314FF0FF3000F074B9B0
:1093C000ADF1080C6DE904CE00F006F8DDF804E01C
:1093D000DDE9022304B070472DE9F047089D0446FB
:1093E0008E46002B4DD18A42944669D9B2FA82F258
:1093F00052B101FA02F3C2F1200120FA01F10CFA94
:1094000002FC41EA030E94404FEA1C48210CBEFBCB
:10941000F8F61FFA8CF708FB16E341EA034306FB54
:1094200007F199420AD91CEB030306F1FF3080F0E3
:109430001F81994240F21C81023E63445B1AA4B230
:10944000B3FBF8F008FB103344EA034400FB07F7D2
:10945000A7420AD91CEB040400F1FF3380F00A8113
:10946000A74240F207816444023840EA0640E41B08
:1094700000261DB1D4400023C5E900433146BDE8B4
:10948000F0878B4209D9002D00F0EF800026C5E956
:10949000000130463146BDE8F087B3FA83F6002E6E
:1094A0004AD18B4202D3824200F2F980841A61EBE6
:1094B000030301209E46002DE0D0C5E9004EDDE704
:1094C00002B9FFDEB2FA82F2002A40F09280A1EBEC
:1094D0000C014FEA1C471FFA8CFE0126200CB1FB41
:1094E000F7F307FB131140EA01410EFB03F088423A
:1094F00008D91CEB010103F1FF3802D2884200F2C7
:10950000CB804346091AA4B2B1FBF7F007FB101158
:1095100044EA01440EFB00FEA64508D91CEB0404F6
:1095200000F1FF3102D2A64500F2BB800846A4EB51
:109530000E0440EA03409CE7C6F12007B34022FA3C
:1095400007FC4CEA030C20FA07F401FA06F31C436B
:10955000F9404FEA1C4900FA06F3B1FBF9F8200C78
:109560001FFA8CFE09FB181140EA014108FB0EF0BE
:10957000884202FA06F20BD91CEB010108F1FF3A0E
:1095800080F08880884240F28580A8F1020861441A
:10959000091AA4B2B1FBF9F009FB101144EA014128
:1095A00000FB0EFE8E4508D91CEB010100F1FF34D3
:1095B0006CD28E456AD90238614440EA0840A0FB6B
:1095C0000294A1EB0E01A142C846A64656D353D041
:1095D0005DB1B3EB080261EB0E0101FA07F722FA65
:1095E00006F3F1401F43C5E9007100263146BDE88E
:1095F000F087C2F12003D8400CFA02FC21FA03F3F1
:10960000914001434FEA1C471FFA8CFEB3FBF7F071
:1096100007FB10360B0C43EA064300FB0EF69E4296
:1096200004FA02F408D91CEB030300F1FF382FD22F
:109630009E422DD9023863449B1B89B2B3FBF7F6D7
:1096400007FB163341EA034106FB0EF38B4208D9B0
:109650001CEB010106F1FF3816D28B4214D9023EF1
:109660006144C91A46EA004638E72E46284605E70F
:109670000646E3E61846F8E64B45A9D2B9EB0208E0
:1096800064EB0C0E0138A3E74646EAE7204694E770
:109690004046D1E7D0467BE7023B614432E73046A3
:1096A00009E76444023842E7704700BF80B500AF65
:1096B00000F00DFD00F012F800F086F800F054F80C
:1096C000DFED040A9FED040A00F0BEF800F026FB6F
:1096D000F6E700BFCDCC0C40CDCC8C3F80B596B02A
:1096E00000AF07F1140344220021184602F07CFE6B
:1096F0003B4600221A605A609A60DA601A614FF4A1
:10970000007001F013F80346002B01D000F02CFB91
:1097100010237B610123FB6200233B6360237B6397
:109720000023FB6307F11403184601F055F80346C4
:10973000002B01D000F018FB0F233B6000237B605F
:109740000023BB600023FB6000233B613B460021FC
:10975000184601F055FC0346002B01D000F004FB35
:1097600000BF5837BD4680BD80B500AF144B154AC9
:109770001A60134B4FF4E1325A60114B00229A6089
:109780000F4B0022DA600E4B00221A610C4B0C22A8
:109790005A610B4B4FF480729A61094B0022DA61D7
:1097A000074B00221A62064B00225A62044802F05C
:1097B00033F90346002B01D000F0D6FA00BF80BD7C
:1097C000780200200038014080B588B000AF07F172
:1097D0000C0300221A605A609A60DA601A61184B12
:1097E000DB6C174A43F00103D364154BDB6C03F0C9
:1097F0000103BB60BB68124BDB6C114A43F00203F0
:10980000D3640F4BDB6C03F002037B607B68202387
:10981000FB604FF488133B6100237B6107F10C036D
:109820001946084800F0DAFD00220021172000F058
:109830009EFD172000F0B7FD00BF2037BD4680BD5C
:1098400000100240000400482DE9B04388B004AF86
:1098500087ED010AC7ED000A4FF00003BB6078688E
:10986000FFF772FA804689463868FFF76DFA0446BA
:109870000D46D7ED000A97ED010A00F0D5F810EE7D
:10988000103A1846FFF760FA02460B46CDE902236C
:10989000CDE9004542464B465B495C4803F016FA69
:1098A0005A48FFF795F803469AB264235749584837
:1098B00002F000F901220821564800F0F9FE0023C9
:1098C000FB6002E0FB680133FB60FB68524A934295
:1098D000F8D97868FFF738FA804689463868FFF784
:1098E00033FA04460D46D7ED000A97ED010A00F061
:1098F00013F910EE103A1846FFF726FA02460B4607
:10990000CDE90223CDE9004542464B4643493F4855
:1099100003F0DCF93D48FFF75BF803469AB2642395
:109920003A493B4802F0C6F800220821394800F0C5
:10993000BFFE00F0F3F97868FFF706FA8046894623
:109940003868FFF701FA04460D46D7ED000A97ED97
:10995000010A00F059F910EE103A1846FFF7F4F931
:1099600002460B46CDE90223CDE9004542464B466F
:109970002B49264803F0AAF92448FFF729F80346A3
:109980009AB264232149224802F094F80122082166
:10999000204800F08DFE00F0C1F97868FFF7D4F997
:1099A000804689463868FFF7CFF904460D46D7ED63
:1099B000000A97ED010A00F09DF910EE103A1846E2
:1099C000FFF7C2F902460B46CDE90223CDE9004577
:1099D00042464B4613490D4803F078F90B48FEF711
:1099E000F7FF03469AB264230849094802F062F877
:1099F00000220821074800F05BFE00F08FF900BF4D
:109A00001037BD46BDE8B083D8F10008F80100204A
:109A10007802002000040048DF930400E8F1000809
:109A2000F8F1000808F2000880B483B000AF87EDB9
:109A3000010AC7ED000A00BF00BF00BF00BF00BFA2
:109A400000BF00BF00BF00BF00BF00BF00BF00BF1E
:109A500000BF00BF00BF00BF00BF00BF00BF00BF0E
:109A600000BF00BF00BF00BF00BF00BF00BF00BFFE
:109A700000BF00BF00BF00BF00BF00BF00BF00BFEE
:109A800000BF00BF00BF00BF00BF00BF00BF00BFDE
:109A900000BF00BF00BF00BF00BF00BF00BF00BFCE
:109AA00000BF00BF00BF00BF00BF00BF00BF00BFBE
:109AB00000BF00BF00BF00BF00BF00BF00BF00BFAE
:109AC00000BF00BF00BF00BF00BF00BF00BF00BF9E
:109AD00000BF00BF00BF00BF00BF00BF00BF00BF8E
:109AE00000BF00BF00BF00BF00BF00BF00BF00BF7E
:109AF00000BF00BF00BF00BF00BF00BF00BF97EDA9
:109B0000017AD7ED007A77EE277AB0EE670A0C3744
:109B1000BD465DF8047B704780B483B000AF87ED2D
:109B2000010AC7ED000A00BF00BF00BF00BF00BFB1
:109B300000BF00BF00BF00BF00BF00BF00BF00BF2D
:109B400000BF00BF00BF00BF00BF00BF00BF00BF1D
:109B500000BF00BF00BF00BF00BF00BF00BF00BF0D
:109B600000BF00BF00BF00BF00BF00BF00BF00BFFD
:109B700000BF00BF00BF00BF00BF00BF00BF00BFED
:109B800000BF00BF00BF00BF00BF00BF00BF00BFDD
:109B900000BF00BF00BF00BF00BF00BF00BF00BFCD
:109BA00000BF00BF00BF00BF00BF00BF00BF00BFBD
:109BB00000BF00BF00BF00BF00BF00BF00BF00BFAD
:109BC00000BF00BF00BF00BF00BF00BF00BF00BF9D
:109BD00000BF00BF00BF00BF00BF00BF00BF00BF8D
:109BE00000BF00BF00BF00BF00BF00BF00BF97EDB8
:109BF000017AD7ED007A77EE677AB0EE670A0C3714
:109C0000BD465DF8047B704780B483B000AF87ED3C
:109C1000010AC7ED000A00BF00BF00BF00BF00BFC0
:109C200000BF00BF00BF00BF00BF00BF00BF00BF3C
:109C300000BF00BF00BF00BF00BF00BF00BF00BF2C
:109C400000BF00BF00BF00BF00BF00BF00BF00BF1C
:109C500000BF00BF00BF00BF00BF00BF00BF00BF0C
:109C600000BF00BF00BF00BF00BF00BF00BF00BFFC
:109C700000BF00BF00BF00BF00BF00BF00BF00BFEC
:109C800000BF00BF00BF00BF00BF00BF00BF00BFDC
:109C900000BF00BF00BF00BF00BF00BF00BF00BFCC
:109CA00000BF00BF00BF00BF00BF00BF00BF00BFBC
:109CB00000BF00BF00BF00BF00BF00BF00BF00BFAC
:109CC00000BF00BF00BF00BF00BF00BF00BF00BF9C
:109CD00000BF00BF00BF00BF00BF00BF00BFD7ED87
:109CE000017A67EEA77AB0EE670A0C37BD465DF8D9
:109CF000047B704780B483B000AF87ED010AC7EDE5
:109D0000000A97ED017AD7ED007A67EE277AB0EE78
:109D1000670A0C37BD465DF8047B704780B483B09A
:109D200000AF00237B6002E07B6801337B607B68CF
:109D3000044A9342F8D900BF00BF0C37BD465DF816
:109D4000047B7047DF93040080B483B000AF034608
:109D5000FB80044B01221A7000BF0C37BD465DF832
:109D6000047B7047FC02002080B400AF72B600BFD5
:109D7000FEE7000080B483B000AF0F4B1B6E0E4AAD
:109D800043F0010313660C4B1B6E03F001037B6071
:109D90007B68094B9B6D084A43F080539365064BE3
:109DA0009B6D03F080533B603B6800BF0C37BD46A2
:109DB0005DF8047B704700BF0010024080B59EB084
:109DC00000AF786007F1640300221A605A609A605D
:109DD000DA601A6107F1100354220021184602F0DC
:109DE00003FB7B681B681F4A934237D101233B6109
:109DF00000233B6307F11003184601F025FB0346DF
:109E0000002B01D0FFF7B0FF174B1B6E164A43F42F
:109E100080431366144B1B6E03F48043FB60FB68A6
:109E2000114BDB6C104A43F00103D3640E4BDB6C27
:109E300003F00103BB60BB684FF4B0537B660223A1
:109E4000BB660023FB6603233B6707237B6707F1A1
:109E5000640319464FF0904000F0C0FA00BF783715
:109E6000BD4680BD003801400010024080B400AF04
:109E7000FEE780B400AFFEE780B400AFFEE780B439
:109E800000AFFEE780B400AFFEE780B400AF00BFD4
:109E9000BD465DF8047B704780B400AF00BFBD468F
:109EA0005DF8047B704780B400AF00BFBD465DF82D
:109EB000047B704780B500AF00F05EF900BF80BD45
:109EC00080B500AF202000F00BFC00BF80BD80B447
:109ED00000AF01231846BD465DF8047B704780B58E
:109EE00082B000AF7860396002F054FA034616225F
:109EF0001A604FF0FF3318460837BD4680BD80B565
:109F000082B000AF78604FF0FF317868FFF7E7FF6D
:109F1000FEE780B586B000AFF860B9607A600023D4
:109F20007B610AE0AFF300800146BB685A1CBA604F
:109F3000CAB21A707B6901337B617A697B689A4285
:109F4000F0DB7B6818461837BD4680BD80B586B00B
:109F500000AFF860B9607A6000237B6109E0BB68FC
:109F60005A1CBA601B781846AFF300807B69013336
:109F70007B617A697B689A42F1DB7B681846183707
:109F8000BD4680BD80B483B000AF78604FF0FF3332
:109F900018460C37BD465DF8047B704780B483B02B
:109FA00000AF786039603B684FF400525A6000237C
:109FB00018460C37BD465DF8047B704780B483B00B
:109FC00000AF7860012318460C37BD465DF8047B6E
:109FD000704780B485B000AFF860B9607A60002344
:109FE00018461437BD465DF8047B704780B586B0CF
:109FF00000AF7860144A154BD31A7B617B693B61D3
:10A00000134B1B68002B02D1114B124A1A60104BE4
:10A010001A687B6813443A699A4207D202F0BAF987
:10A0200003460C221A604FF0FF3309E0084B1B680F
:10A03000FB60074B1A687B681344054A1360FB6892
:10A0400018461837BD4680BD0000012000040000FE
:10A05000000300201803002080B400AF064BD3F8A3
:10A060008830054A43F47003C2F8883000BFBD460B
:10A070005DF8047B704700BF00ED00E0DFF834D0EE
:10A08000FFF7EAFF0C480D490D4A002302E0D458BF
:10A09000C4500433C4188C42F9D30A4A0A4C002332
:10A0A00001E013600432A242FBD302F079F9FFF71A
:10A0B000FDFAFEE70000012000000020DC01002086
:10A0C0004CF60008DC01002018030020FEE780B5F4
:10A0D00082B000AF0023FB71032000F03DF90F2098
:10A0E00000F00EF80346002B02D00123FB7101E0C3
:10A0F000FFF740FEFB7918460837BD4680BD0000DB
:10A1000080B584B000AF78600023FB73174B1B78D9
:10A11000002B23D0164B1A68144B1B7819464FF4AA
:10A120007A73B3FBF1F3B2FBF3F3184600F049F98D
:10A130000346002B0FD17B680F2B09D800227968CA
:10A140004FF0FF3000F013F90A4A7B68136007E014
:10A150000123FB7304E00123FB7301E00123FB7384
:10A16000FB7B18461037BD4680BD00BF08000020AD
:10A17000000000200400002080B400AF064B1B78D4
:10A180001A46064B1B681344044A136000BFBD46C1
:10A190005DF8047B704700BF080000200403002026
:10A1A00080B400AF034B1B681846BD465DF8047BC6
:10A1B000704700BF0403002080B485B000AF786012
:10A1C0007B6803F00703FB600C4BDB68BB60BA687D
:10A1D0004FF6FF031340BB60FB681A02BB681343D2
:10A1E00043F0BF6343F40033BB60044ABB68D360F1
:10A1F00000BF1437BD465DF8047B704700ED00E0FA
:10A2000080B400AF044BDB681B0A03F00703184659
:10A21000BD465DF8047B704700ED00E080B483B07C
:10A2200000AF0346FB7197F90730002B0BDBFB797E
:10A2300003F01F02074997F907305B09012000FA74
:10A2400002F241F8232000BF0C37BD465DF8047BC5
:10A25000704700BF00E100E080B483B000AF034668
:10A260003960FB7197F90730002B0ADB3B68DAB2E3
:10A270000C4997F907301201D2B20B4483F800233E
:10A280000AE03B68DAB20849FB7903F00F03043BAC
:10A290001201D2B20B441A7600BF0C37BD465DF8EE
:10A2A000047B704700E100E000ED00E080B489B07D
:10A2B00000AFF860B9607A60FB6803F00703FB61E8
:10A2C000FB69C3F10703042B28BF0423BB61FB69AF
:10A2D0000433062B02D9FB69033B00E000237B61BA
:10A2E0004FF0FF32BB6902FA03F3DA43BB681A404E
:10A2F0007B699A404FF0FF317B6901FA03F3D94340
:10A300007B680B40134318462437BD465DF8047B39
:10A310007047000080B582B000AF78607B68013B79
:10A32000B3F1807F01D301230FE00A4A7B68013B30
:10A3300053600F214FF0FF30FFF78EFF054B0022D7
:10A340009A60044B07221A60002318460837BD465E
:10A3500080BD00BF10E000E080B582B000AF786043
:10A360007868FFF729FF00BF0837BD4680BD80B57C
:10A3700086B000AF0346B9607A60FB7300237B614F
:10A38000FFF73EFF78617A68B9687869FFF78EFF5A
:10A39000024697F90F3011461846FFF75DFF00BFE0
:10A3A0001837BD4680BD80B582B000AF0346FB7153
:10A3B00097F907301846FFF731FF00BF0837BD4651
:10A3C00080BD80B582B000AF78607868FFF7A2FFEB
:10A3D000034618460837BD4680BD000080B487B0EC
:10A3E00000AF7860396000237B6148E13B681A6800
:10A3F00001217B6901FA03F31340FB60FB68002B2A
:10A4000000F03A813B685B6803F00303012B05D041
:10A410003B685B6803F00303022B30D17B689B68C9
:10A420003B617B695B00032202FA03F3DB433A6979
:10A4300013403B613B68DA687B695B0002FA03F317
:10A440003A6913433B617B683A699A607B685B6851
:10A450003B6101227B6902FA03F3DB433A69134053
:10A460003B613B685B681B0903F001027B6902FAF0
:10A4700003F33A6913433B617B683A695A603B686E
:10A480005B6803F00303032B17D07B68DB683B6139
:10A490007B695B00032202FA03F3DB433A69134052
:10A4A0003B613B689A687B695B0002FA03F33A6997
:10A4B00013433B617B683A69DA603B685B6803F091
:10A4C0000303022B23D17B69DA087B68083253F837
:10A4D00022303B617B6903F007039B000F2202FAE5
:10A4E00003F3DB433A6913403B613B681A697B69BC
:10A4F00003F007039B0002FA03F33A6913433B613D
:10A500007B69DA087B680832396943F822107B6876
:10A510001B683B617B695B00032202FA03F3DB43A8
:10A520003A6913403B613B685B6803F003027B6957
:10A530005B0002FA03F33A6913433B617B683A69B3
:10A540001A603B685B6803F44033002B00F0948092
:10A55000524B1B6E514A43F0010313664F4B1B6E67
:10A5600003F00103BB60BB684D4A7B699B08023363
:10A5700052F823303B617B6903F003039B000F22F9
:10A5800002FA03F3DB433A6913403B617B68B3F1A2
:10A59000904F0DD07B68434A934207D07B68424A74
:10A5A000934201D1022304E0072302E0012300E0EB
:10A5B00000237A6902F00302920093403A69134340
:10A5C0003B6137497B699B0802333A6941F8232094
:10A5D000364B9B683B61FB68DB433A6913403B6148
:10A5E0003B685B6803F48013002B03D03A69FB6877
:10A5F00013433B612D4A3B6993602C4BDB683B6105
:10A60000FB68DB433A6913403B613B685B6803F4DA
:10A610000013002B03D03A69FB6813433B61234AC4
:10A620003B69D360214B5B683B61FB68DB433A6964
:10A6300013403B613B685B6803F40033002B03D09D
:10A640003A69FB6813433B61184A3B695360174BF7
:10A650001B683B61FB68DB433A6913403B613B6825
:10A660005B6803F48033002B03D03A69FB68134323
:10A670003B610E4A3B6913607B6901337B613B6838
:10A680001A687B6922FA03F3002B7FF4AFAE00BF98
:10A6900000BF1C37BD465DF8047B704700100240C8
:10A6A0000000014000040048000800480004014088
:10A6B00080B483B000AF78600B467B8013467B701C
:10A6C0007B78002B03D07A887B689A6102E07A88D5
:10A6D0007B689A6200BF0C37BD465DF8047B70470B
:10A6E00080B582B000AF0346FB80084B5A69FB88F7
:10A6F0001340002B06D0054AFB885361FB8818469F
:10A70000FFF722FB00BF0837BD4680BD00040140B3
:10A7100080B400AF044B1B6803F4C0631846BD4609
:10A720005DF8047B704700BF0070004080B485B0C6
:10A7300000AF78607B68B3F5007F30D1234B1B6896
:10A7400003F4C063B3F5007F38D0204B1B6823F4BB
:10A75000C0631E4A43F4007313601D4B1B68322212
:10A7600002FB03F31B4AA2FB03239B0C0133FB6098
:10A7700002E0FB68013BFB60144B5B6903F4806300
:10A78000B3F5806F02D1FB68002BF2D10F4B5B69F0
:10A7900003F48063B3F5806F10D103230FE00B4BFC
:10A7A0001B6803F4C063B3F5806F07D0074B1B68C9
:10A7B00023F4C063054A43F4806313600023184602
:10A7C0001437BD465DF8047B704700BF0070004041
:10A7D0000000002083DE1B4380B588B000AF7860A6
:10A7E0007B68002B02D1012300F002BC964B9B68D2
:10A7F00003F00C03BB61944BDB6803F003037B6144
:10A800007B681B6803F01003002B00F0E480BB6939
:10A81000002B07D0BB690C2B40F08B807B69012B90
:10A8200040F08780884B1B6803F00203002B05D0A3
:10A830007B689B69002B01D10123D9E37B681A6AED
:10A84000814B1B6803F00803002B04D07E4B1B6870
:10A8500003F0F00305E07C4BD3F894301B0903F0C0
:10A86000F003934223D27B681B6A184600F08CFDEC
:10A870000346002B01D00123BAE3734B1B68724AD5
:10A8800043F008031360704B1B6823F0F0027B68F1
:10A890001B6A6D4913430B606B4B5B6823F47F426B
:10A8A0007B68DB691B02684913434B6025E0664BFC
:10A8B0001B68654A43F008031360634B1B6823F071
:10A8C000F0027B681B6A604913430B605E4B5B6858
:10A8D00023F47F427B68DB691B025B4913434B60B7
:10A8E000BB69002B09D17B681B6A184600F04CFD40
:10A8F0000346002B01D001237AE300F081FC0246DD
:10A90000514B9B681B0903F00F035049CB5C03F0CC
:10A910001F0322FA03F34E4A13604E4B1B6818467E
:10A92000FFF7EEFB0346FB73FB7B002B52D0FB7B58
:10A930005EE37B689B69002B32D0434B1B68424A25
:10A9400043F001031360FFF72BFC386108E0FFF7C9
:10A9500027FC02463B69D31A022B01D9032347E3A4
:10A96000394B1B6803F00203002BF0D0364B1B68F9
:10A97000354A43F008031360334B1B6823F0F002A1
:10A980007B681B6A304913430B602F4B5B6823F4D1
:10A990007F427B68DB691B022B4913434B601AE043
:10A9A000294B1B68284A23F001031360FFF7F8FBCB
:10A9B000386108E0FFF7F4FB02463B69D31A022B2B
:10A9C00001D9032314E3204B1B6803F00203002B7F
:10A9D000F0D100E000BF7B681B6803F00103002B8F
:10A9E00073D0BB69082B05D0BB690C2B0ED17B69DA
:10A9F000032B0BD1144B1B6803F40033002B63D0E3
:10AA00007B685B68002B5FD10123F1E27B685B68A8
:10AA1000B3F5803F06D10C4B1B680B4A43F48033DF
:10AA2000136025E07B685B68B3F5A02F14D1064B5B
:10AA30001B68054A43F480231360034B1B68024ADA
:10AA400043F48033136013E00010024018F2000852
:10AA50000000002004000020A04B1B689F4A23F444
:10AA6000803313609D4B1B689C4A23F48023136042
:10AA70007B685B68002B13D0FFF792FB386108E01E
:10AA8000FFF78EFB02463B69D31A642B01D90323DF
:10AA9000AEE2924B1B6803F40033002BF0D014E0BD
:10AAA000FFF77EFB386108E0FFF77AFB02463B695F
:10AAB000D31A642B01D903239AE2884B1B6803F451
:10AAC0000033002BF0D100E000BF7B681B6803F06F
:10AAD0000203002B60D0BB69042B05D0BB690C2B93
:10AAE00019D17B69022B16D17C4B1B6803F4806360
:10AAF000002B05D07B68DB68002B01D1012377E2B6
:10AB0000764B5B6823F0F8527B681B691B06734920
:10AB100013434B6040E07B68DB68002B23D06F4B16
:10AB20001B686E4A43F480731360FFF739FB38618A
:10AB300008E0FFF735FB02463B69D31A022B01D927
:10AB4000032355E2654B1B6803F48063002BF0D0B0
:10AB5000624B5B6823F0F8527B681B691B065F49F8
:10AB600013434B6018E05D4B1B685C4A23F4807311
:10AB70001360FFF715FB386108E0FFF711FB024691
:10AB80003B69D31A022B01D9032331E2534B1B68D3
:10AB900003F48063002BF0D17B681B6803F008038B
:10ABA000002B3CD07B685B69002B1CD04B4BD3F84F
:10ABB00094304A4A43F00103C2F89430FFF7F0FAA8
:10ABC000386108E0FFF7ECFA02463B69D31A022B22
:10ABD00001D903230CE2414BD3F8943003F0020374
:10ABE000002BEFD01BE03D4BD3F894303B4A23F0D1
:10ABF0000103C2F89430FFF7D3FA386108E0FFF799
:10AC0000CFFA02463B69D31A022B01D90323EFE1A5
:10AC1000324BD3F8943003F00203002BEFD17B6862
:10AC20001B6803F00403002B00F0A6800023FB77D1
:10AC30002A4B9B6D03F08053002B0DD1274B9B6D4E
:10AC4000264A43F080539365244B9B6D03F0805359
:10AC5000BB60BB680123FB77214B1B6803F4807347
:10AC6000002B18D11E4B1B681D4A43F480731360E0
:10AC7000FFF796FA386108E0FFF792FA02463B695F
:10AC8000D31A022B01D90323B2E1154B1B6803F43D
:10AC90008073002BF0D07B689B68012B08D10F4B91
:10ACA000D3F890300D4A43F00103C2F8903029E008
:10ACB0007B689B68052B15D1084BD3F89030074A69
:10ACC00043F00403C2F89030044BD3F89030034AA9
:10ACD00043F00103C2F8903014E000BF00100240BE
:10ACE000007000409A4BD3F89030994A23F001034A
:10ACF000C2F89030964BD3F89030954A23F0040375
:10AD0000C2F890307B689B68002B16D0FFF748FA9A
:10AD100038610AE0FFF744FA02463B69D31A41F270
:10AD20008832934201D9032362E1894BD3F89030F2
:10AD300003F00203002BEDD015E0FFF731FA386184
:10AD40000AE0FFF72DFA02463B69D31A41F2883236
:10AD5000934201D903234BE17D4BD3F8903003F0AC
:10AD60000203002BEDD1FB7F012B05D1784B9B6DAE
:10AD7000774A23F0805393657B681B6803F02003B8
:10AD8000002B3CD07B685B6A002B1CD0704BD3F847
:10AD900098306F4A43F00103C2F89830FFF700FA89
:10ADA000386108E0FFF7FCF902463B69D31A022B31
:10ADB00001D903231CE1664BD3F8983003F002035A
:10ADC000002BEFD01BE0624BD3F89830604A23F0A1
:10ADD0000103C2F89830FFF7E3F9386108E0FFF7A4
:10ADE000DFF902463B69D31A022B01D90323FFE0A6
:10ADF000574BD3F8983003F00203002BEFD17B6858
:10AE00009B6A002B00F0F3807B689B6A022B40F06A
:10AE1000C9804F4BDB687B617B6903F003027B6871
:10AE2000DB6A9A422CD17B6903F070027B681B6B52
:10AE3000013B1B019A4223D17B6903F4FE427B68EC
:10AE40005B6B1B029A421BD17B6903F078427B68E3
:10AE50009B6BDB069A4213D17B6903F4C0027B68CB
:10AE6000DB6B5B08013B5B059A4209D17B6903F010
:10AE7000C0627B681B6C5B08013B5B069A426BD02F
:10AE8000BB690C2B62D0324B1B6803F08063002B34
:10AE900001D00123ACE02E4B1B682D4A23F08073B8
:10AEA0001360FFF77DF9386108E0FFF779F9024692
:10AEB0003B69D31A022B01D9032399E0244B1B6869
:10AEC00003F00073002BF0D1214BDA68214B1340C3
:10AED0007A68D16A7A68126B013A120111437A6872
:10AEE000526B120211437A68D26B5208013A520532
:10AEF00011437A68126C5208013A520611437A687B
:10AF0000926BD2060A4312491343CB60104B1B6865
:10AF10000F4A43F0807313600D4BDB680C4A43F01B
:10AF20008073D360FFF73CF9386108E0FFF738F928
:10AF300002463B69D31A022B01D9032358E0044B84
:10AF40001B6803F00073002BF0D050E001234FE0AA
:10AF5000001002408C809D01274B1B6803F000739A
:10AF6000002B44D1244B1B68234A43F080731360A9
:10AF7000214BDB68204A43F08073D360FFF710F960
:10AF8000386108E0FFF70CF902463B69D31A022B3F
:10AF900001D903232CE0184B1B6803F00073002B2E
:10AFA000F0D024E0BB690C2B1FD0134B1B68124A56
:10AFB00023F080731360FFF7F3F8386108E0FFF7C0
:10AFC000EFF802463B69D31A022B01D903230FE0A5
:10AFD000094B1B6803F00073002BF0D1064BDA68B5
:10AFE0000549064B1340CB6001E0012300E000233C
:10AFF00018462037BD4680BD00100240FCFFEEFE23
:10B0000080B584B000AF786039607B68002B01D1D7
:10B010000123E7E0754B1B6803F007033A689A4287
:10B0200010D9724B1B6823F0070270493B68134329
:10B030000B606E4B1B6803F007033A689A4201D01D
:10B040000123CFE07B681B6803F00203002B10D0C4
:10B050007B689A68664B9B6803F0F0039A4208D9B4
:10B06000634B9B6823F0F0027B689B686049134345
:10B070008B607B681B6803F00103002B4CD07B685E
:10B080005B68032B07D15A4B1B6803F00073002B3E
:10B0900021D10123A6E07B685B68022B07D1544BCA
:10B0A0001B6803F40033002B15D101239AE07B6861
:10B0B0005B68002B07D14E4B1B6803F00203002B8B
:10B0C00009D101238EE04A4B1B6803F48063002BF7
:10B0D00001D1012386E0464B9B6823F003027B6885
:10B0E0005B68434913438B60FFF75AF8F8600AE046
:10B0F000FFF756F80246FB68D31A41F288329342B2
:10B1000001D903236EE03A4B9B6803F00C027B6885
:10B110005B689B009A42EBD17B681B6803F00203DB
:10B12000002B10D07B689A68314B9B6803F0F003CA
:10B130009A4208D22E4B9B6823F0F0027B689B68F2
:10B140002B4913438B60294B1B6803F007033A68B4
:10B150009A4210D2254B1B6823F0070223493B6813
:10B1600013430B60214B1B6803F007033A689A42B4
:10B1700001D0012336E07B681B6803F00403002B39
:10B1800008D01B4B9B6823F4E0627B68DB6818499E
:10B1900013438B607B681B6803F00803002B09D006
:10B1A000134B9B6823F460527B681B69DB001049DA
:10B1B00013438B6000F024F802460D4B9B681B097B
:10B1C00003F00F030B49CB5C03F01F0322FA03F3D8
:10B1D000094A1360094B1B681846FEF791FF0346A6
:10B1E000FB72FB7A18461037BD4680BD0020024036
:10B1F0000010024018F200080000002004000020A7
:10B2000080B489B000AF0023FB610023BB613E4BDB
:10B210009B6803F00C033B613B4BDB6803F00303CB
:10B22000FB603B69002B05D03B690C2B21D1FB68EF
:10B23000012B1ED1344B1B6803F00803002B07D1F0
:10B24000314BD3F894301B0A03F00F03FB6105E088
:10B250002D4B1B681B0903F00F03FB612B4AFB6995
:10B2600052F82330FB613B69002B0DD1FB69BB61B8
:10B270000AE03B69042B02D1254BBB6104E03B692A
:10B28000082B01D1234BBB613B690C2B34D11E4BE6
:10B29000DB6803F00303BB60BB68022B03D0BB6811
:10B2A000032B03D005E01A4B7B6105E0194B7B6152
:10B2B00002E0FB697B6100BF134BDB681B0903F0F5
:10B2C000070301337B60104BDB681B0A03F07F032D
:10B2D0007A6903FB02F27B68B2FBF3F37B610A4BF2
:10B2E000DB685B0E03F0030301335B003B607A69AC
:10B2F0003B68B2FBF3F3BB61BB6918462437BD461C
:10B300005DF8047B704700BF0010024030F2000877
:10B310000024F40000127A0080B400AF034B1B68D5
:10B320001846BD465DF8047B704700BF0000002052
:10B3300080B500AFFFF7F0FF0246064B9B681B0A83
:10B3400003F007030449CB5C03F01F0322FA03F365
:10B35000184680BD0010024028F2000880B500AFFA
:10B36000FFF7DAFF0246064B9B68DB0A03F0070390
:10B370000449CB5C03F01F0322FA03F3184680BD97
:10B380000010024028F2000880B586B000AF786057
:10B3900000233B612A4B9B6D03F08053002B03D0AD
:10B3A000FFF7B6F9786114E0254B9B6D244A43F012
:10B3B00080539365224B9B6D03F08053FB60FB68C9
:10B3C000FFF7A6F978611E4B9B6D1D4A23F0805351
:10B3D00093657B69B3F5007F0BD17B68802B19D90E
:10B3E0007B68A02B02D902233B6113E001233B6160
:10B3F00010E07B68802B02D903233B610AE07B6865
:10B40000802B02D102233B6104E07B68702B01D1C9
:10B4100001233B610B4B1B6823F0070209493B6981
:10B4200013430B60074B1B6803F007033A699A420A
:10B4300001D0012300E0002318461837BD4680BD27
:10B44000001002400020024080B586B000AF786056
:10B450000023FB740023BB747B681B6803F4006348
:10B46000002B31D07B68DB6BB3F5400F1AD0B3F5FE
:10B47000400F14D8002B09D0B3F5000F0FD15D4B4E
:10B48000DB685C4A43F48033D3600CE07B680433B0
:10B490000021184600F0CEF90346FB7403E00123B7
:10B4A000FB7400E000BFFB7C002B0BD1514BD3F8A9
:10B4B000883023F440027B68DB6B4E491343C1F8AC
:10B4C000883001E0FB7CBB747B681B6803F40033AD
:10B4D000002B00F09E8000237B74464B9B6D03F095
:10B4E0008053002B01D1012300E00023002B0DD05D
:10B4F000404B9B6D3F4A43F0805393653D4B9B6DA2
:10B5000003F08053BB60BB6801237B743A4B1B681C
:10B51000394A43F480731360FEF742FEF86009E095
:10B52000FEF73EFE0246FB68D31A022B02D9032324
:10B53000FB7405E0304B1B6803F48073002BEFD0E5
:10B54000FB7C002B5AD12B4BD3F8903003F4407383
:10B550007B617B69002B1ED07B681B6D7A699A42E8
:10B5600019D0244BD3F8903023F440737B61214BE6
:10B57000D3F890301F4A43F48033C2F890301D4B0B
:10B58000D3F890301B4A23F48033C2F89030194A24
:10B590007B69C2F890307B6903F00103002B16D061
:10B5A000FEF7FEFDF8600BE0FEF7FAFD0246FB68D1
:10B5B000D31A41F28832934202D90323FB7406E086
:10B5C0000C4BD3F8903003F00203002BECD0FB7C43
:10B5D000002B0BD1074BD3F8903023F440727B68DB
:10B5E0001B6D04491343C1F8903009E0FB7CBB7428
:10B5F00006E000BF0010024000700040FB7CBB74FE
:10B600007B7C012B05D18A4B9B6D894A23F08053AB
:10B6100093657B681B6803F00103002B0AD0844B01
:10B62000D3F8883023F003027B681B6A80491343F8
:10B63000C1F888307B681B6803F00203002B0AD036
:10B640007B4BD3F8883023F00C027B685B6A784927
:10B650001343C1F888307B681B6803F02003002B7C
:10B660000AD0734BD3F8883023F440627B689B6A1E
:10B670006F491343C1F888307B681B6803F400737B
:10B68000002B0AD06A4BD3F8883023F440227B6821
:10B690005B6B67491343C1F888307B681B6803F410
:10B6A0008063002B0AD0624BD3F8883023F4401219
:10B6B0007B689B6B5E491343C1F888307B681B68CD
:10B6C00003F04003002B0AD0594BD3F8883023F401
:10B6D00040527B68DB6A56491343C1F888307B6867
:10B6E0001B6803F48073002B0AD0514BD3F88830C9
:10B6F00023F440327B681B6B4D491343C1F88830FB
:10B700007B681B6803F40053002B28D0484BD3F808
:10B71000883023F040627B681B6C45491343C1F8B5
:10B7200088307B681B6CB3F1006F06D1404BDB683F
:10B730003F4A43F48013D36011E07B681B6CB3F184
:10B74000806F0CD17B6804330121184600F072F839
:10B750000346FB74FB7C002B01D0FB7CBB747B6835
:10B760001B6803F48023002B28D0314BD3F888309A
:10B7700023F040627B685B6C2D491343C1F888302D
:10B780007B685B6CB3F1006F06D1294BDB68284AFC
:10B7900043F48013D36011E07B685B6CB3F1806F7E
:10B7A0000CD17B6804330121184600F043F80346AE
:10B7B000FB74FB7C002B01D0FB7CBB747B681B689B
:10B7C00003F48043002B1CD0194BD3F8883023F0AE
:10B7D00040527B689B6C16491343C1F888307B68E4
:10B7E0009B6CB3F1805F0CD17B6804330221184657
:10B7F00000F020F80346FB74FB7C002B01D0FB7C9F
:10B80000BB747B681B6803F40043002B0AD0084B11
:10B81000D3F8883023F080427B68DB6C0449134303
:10B82000C1F88830BB7C18461837BD4680BD00BFC4
:10B830000010024080B584B000AF7860396000230A
:10B84000FB73744BDB6803F00303002B18D0714BC0
:10B85000DB6803F003027B681B689A420DD17B68AA
:10B860001B68002B09D06B4BDB681B0903F0070337
:10B870005A1C7B685B689A4247D00123FB7344E003
:10B880007B681B68032B18D0032B25D8012B02D013
:10B89000022B09D020E05F4B1B6803F00203002B52
:10B8A0001DD10123FB731AE05A4B1B6803F480631C
:10B8B000002B16D10123FB7313E0564B1B6803F4D6
:10B8C0000033002B0FD1534B1B6803F48023002B54
:10B8D00009D10123FB7306E00123FB7304E000BFE1
:10B8E00002E000BF00E000BFFB7B002B0DD1494B05
:10B8F000DB6823F073027B6819687B685B68013B37
:10B900001B010B4343491343CB60FB7B002B7CD1D2
:10B91000404B1B683F4A23F080631360FEF740FCF6
:10B92000B86009E0FEF73CFC0246BB68D31A022B64
:10B9300002D90323FB7305E0364B1B6803F0006359
:10B94000002BEFD1FB7B002B5FD13B68002B10D18C
:10B95000304B1B6923F0784323F4FE437A689268E6
:10B9600011027A68D268D2060A432A4913430B614E
:10B9700027E03B68012B12D1264B1B6923F4C0033F
:10B9800023F4FE437A68926811027A6812695208B9
:10B99000013A52050A431F4913430B6111E01D4B45
:10B9A0001B6923F0C06323F4FE437A689268110296
:10B9B0007A6852695208013A52060A4315491343FC
:10B9C0000B61144B1B68134A43F080631360FEF74E
:10B9D000E7FBB86009E0FEF7E3FB0246BB68D31A59
:10B9E000022B02D90323FB7305E00A4B1B6803F00B
:10B9F0000063002BEFD0FB7B002B06D1054B1A69AF
:10BA00007B689B69034913430B61FB7B1846103726
:10BA1000BD4680BD0010024080B582B000AF7860A6
:10BA20007B68002B01D1012340E07B689B6F002BDA
:10BA300006D17B68002283F874207868FEF7BEF98F
:10BA40007B6824229A677B681B681A687B681B687E
:10BA500022F001021A60786800F0C0F80346012B5A
:10BA600001D1012322E07B685B6A002B02D0786859
:10BA700000F0E0FA7B681B685A687B681B6822F458
:10BA800090425A607B681B689A687B681B6822F04A
:10BA90002A029A607B681B681A687B681B6842F000
:10BAA00001021A60786800F067FB03461846083701
:10BAB000BD4680BD80B58AB002AFF860B9603B601A
:10BAC0001346FB80FB689B6F202B40F08280BB6895
:10BAD000002B02D0FB88002B01D101237AE0FB6808
:10BAE00093F87430012B01D1022373E0FB6801222B
:10BAF00083F87420FB680022C3F88020FB682122B1
:10BB00009A67FEF74DFB7861FB68FA88A3F850202E
:10BB1000FB68FA88A3F85220FB689B68B3F5805F46
:10BB200008D1FB681B69002B04D10023FB61BB68B3
:10BB3000BB6103E0BB68FB610023BB61FB680022C3
:10BB400083F874202DE03B6800937B6900228021FC
:10BB5000F86800F05AFB0346002B01D0032339E0BC
:10BB6000FB69002B0BD1BB691A88FB681B68C2F309
:10BB7000080292B21A85BB690233BB6108E0FB6917
:10BB80001A78FB681B6892B21A85FB690133FB6166
:10BB9000FB68B3F852309BB2013B9AB2FB68A3F842
:10BBA0005220FB68B3F852309BB2002BCBD13B68DC
:10BBB00000937B6900224021F86800F026FB0346D1
:10BBC000002B01D0032305E0FB6820229A670023A5
:10BBD00000E0022318462037BD4680BD2DE9B04F56
:10BBE0008AB000AFF860002387F82230FB689A68BB
:10BBF000FB681B691A43FB685B691A43FB68DB69D6
:10BC000013437B62FB681B681A68B44B1340FA68E5
:10BC10001268796A0B431360FB681B685B6823F446
:10BC20004051FB68DA68FB681B680A435A60FB688E
:10BC30009B697B62FB681B68A94A934204D0FB683E
:10BC40001B6A7A6A13437B62FB681B689B6823F458
:10BC50003061FB681B687A6A0A439A60FB681B685C
:10BC6000A04A934226D1A04BD3F8883003F00303B7
:10BC7000032B1BD801A252F823F000BF8DBC000893
:10BC80009DBC000895BC0008A5BC0008012387F8EE
:10BC9000233080E0022387F823307CE0042387F8F8
:10BCA000233078E0082387F8233074E0102387F8E6
:10BCB000233070E0FB681B688C4A934238D18A4B72
:10BCC000D3F8883003F00C030C2B2DD801A252F8C6
:10BCD00023F000BF09BD000829BD000829BD0008E8
:10BCE00029BD000819BD000829BD000829BD0008AC
:10BCF00029BD000811BD000829BD000829BD0008A4
:10BD000029BD000821BD0008002387F8233042E048
:10BD1000022387F823303EE0042387F823303AE0FB
:10BD2000082387F8233036E0102387F8233032E0E9
:10BD3000FB681B686A4A93422AD16B4BD3F8883060
:10BD400003F44063B3F5406F1AD0B3F5406F1BD8CE
:10BD5000B3F5006F0CD0B3F5006F15D8002B03D0EE
:10BD6000B3F5806F08D00FE0002387F8233012E08E
:10BD7000022387F823300EE0042387F823300AE0FB
:10BD8000082387F8233006E0102387F8233002E0E9
:10BD9000102387F82330FB681B68514A93427AD1FD
:10BDA00097F82330082B24D801A252F823F000BFC3
:10BDB000D5BD0008F3BD0008DDBD0008F3BD0008D7
:10BDC000E3BD0008F3BD0008F3BD0008F3BD0008A3
:10BDD000EBBD0008FFF7ACFAF86110E0444BFB61E3
:10BDE0000DE0FFF70DFAF86109E04FF40043FB6145
:10BDF00005E00023FB61012387F8223000BFFB69C7
:10BE0000002B00F00781FB685A6813465B0013445F
:10BE1000FA699A4205D3FB685B681B03FA699A4288
:10BE200003D9012387F82230F4E0FB6900221C4685
:10BE300015464FF000024FF000032B0243EA146353
:10BE40002202F9684968490800208846814612EBB9
:10BE5000080A43EB090BFB685B6800223B607A60D1
:10BE6000D7E9002350465946FDF79EFA02460B4695
:10BE70001346BB61BB69B3F5407F08D3BB69B3F51B
:10BE8000801F04D2FB681B68BA69DA60C2E0012334
:10BE900087F82230BEE0FB68DB69B3F5004F6AD15A
:10BEA00097F82330082B34D801A252F823F000BFB2
:10BEB000D5BE0008F5BE0008FDBE000813BF00088F
:10BEC00003BF000813BF000813BF000813BF00081A
:10BED0000BBF0008FFF72CFAF86120E0F369FFEFD1
:10BEE0000080004000380140001002400044004043
:10BEF0000024F400FFF732FAF86110E04C4BFB61CC
:10BF00000DE0FFF77DF9F86109E04FF40043FB61B4
:10BF100005E00023FB61012387F8223000BFFB69A5
:10BF2000002B77D0FB695A00FB685B685B081A44FA
:10BF3000FB685B68B2FBF3F3BB61BB690F2B16D9DF
:10BF4000BB69B3F5803F12D2BB699BB223F00F03EC
:10BF5000FB82BB695B089BB203F007039AB2FB8AC2
:10BF60001343FB82FB681B68FA8ADA6052E0012304
:10BF700087F822304EE097F82330082B27D801A20B
:10BF800052F823F0A9BF0008B1BF0008B9BF0008EC
:10BF9000CFBF0008BFBF0008CFBF0008CFBF000859
:10BFA000CFBF0008C7BF0008FFF7C2F9F86114E06F
:10BFB000FFF7D4F9F86110E01D4BFB610DE0FFF7CE
:10BFC0001FF9F86109E04FF40043FB6105E000232D
:10BFD000FB61012387F8223000BFFB69002B19D0D9
:10BFE000FB685B685A08FB691A44FB685B68B2FB34
:10BFF000F3F3BB61BB690F2B09D9BB69B3F5803F74
:10C0000005D2BB699AB2FB681B68DA6002E00123C3
:10C0100087F82230FB6800225A66FB6800229A6685
:10C0200097F8223018462837BD46BDE8B08F00BFCC
:10C030000024F40080B483B000AF78607B685B6A52
:10C0400003F00103002B0AD07B681B685B6823F4B4
:10C0500000317B689A6A7B681B680A435A607B6878
:10C060005B6A03F00203002B0AD07B681B685B68E5
:10C0700023F480317B68DA6A7B681B680A435A6064
:10C080007B685B6A03F00403002B0AD07B681B68A3
:10C090005B6823F480217B681A6B7B681B680A430A
:10C0A0005A607B685B6A03F00803002B0AD07B6848
:10C0B0001B685B6823F400417B685A6B7B681B68D4
:10C0C0000A435A607B685B6A03F01003002B0AD0B6
:10C0D0007B681B689B6823F480517B689A6B7B6844
:10C0E0001B680A439A607B685B6A03F02003002B9D
:10C0F0000AD07B681B689B6823F400517B68DA6B6D
:10C100007B681B680A439A607B685B6A03F04003A4
:10C11000002B1AD07B681B685B6823F480117B6856
:10C120001A6C7B681B680A435A607B681B6CB3F50A
:10C13000801F0AD17B681B685B6823F4C0017B68A1
:10C140005A6C7B681B680A435A607B685B6A03F021
:10C150008003002B0AD07B681B685B6823F40021F6
:10C160007B689A6C7B681B680A435A6000BF0C3777
:10C17000BD465DF8047B704780B586B002AF78603D
:10C180007B680022C3F88020FEF70AF8F8607B681D
:10C190001B681B6803F00803082B0ED16FF07E4369
:10C1A0000093FB6800224FF40011786800F02DF82E
:10C1B0000346002B01D0032323E07B681B681B6828
:10C1C00003F00403042B0ED16FF07E430093FB6851
:10C1D00000224FF48001786800F017F80346002B26
:10C1E00001D003230DE07B6820229A677B68202220
:10C1F000DA677B6800221A667B68002283F8742065
:10C20000002318461037BD4680BD80B59CB000AFF6
:10C21000F860B9603B601346FB71A5E0BB6FB3F1FA
:10C22000FF3F00F0A180FDF7BBFF02463B68D31A39
:10C23000BA6F9A4202D3BB6F002B3ED1FB681B68DA
:10C240003B653B6D53E8003FFB64FB6C23F4D0730C
:10C250007B66FB681B681A467B6EFB65BA65B96D29
:10C26000FA6D41E800237B657B6D002BE6D1FB680E
:10C270001B680833FB63FB6B53E8003FBB63BB6B7E
:10C2800023F001033B66FB681B6808333A6EBA640F
:10C290007B64796CBA6C41E800233B643B6C002BF7
:10C2A000E5D1FB6820229A67FB682022DA67FB68E9
:10C2B000002283F87420032367E0FB681B681B6877
:10C2C00003F00403002B4FD0FB681B68DB6903F409
:10C2D0000063B3F5006F47D1FB681B684FF4006241
:10C2E0001A62FB681B68BB62BB6A53E8003F7B6253
:10C2F0007B6A23F4D073FB66FB681B681A46FB6EEF
:10C300007B633A63396B7A6B41E80023FB62FB6A1B
:10C31000002BE6D1FB681B6808337B617B6953E81F
:10C32000003F3B613B6923F00103BB66FB681B6870
:10C330000833BA6E3A62FB61F9693A6A41E8002350
:10C34000BB61BB69002BE5D1FB6820229A67FB68C3
:10C350002022DA67FB682022C3F88020FB680022D5
:10C3600083F87420032310E0FB681B68DA69BB685C
:10C370001340BA689A420CBF01230023DBB21A466D
:10C38000FB799A423FF44AAF002318467037BD4606
:10C3900080BD0000014B1868704700BF0C000020F2
:10C3A00070B50D4D0D4C641BA4100026A64209D19A
:10C3B0000B4D0C4C02F004FF641BA4100026A64297
:10C3C00005D170BD55F8043B98470136EEE755F8A6
:10C3D000043B98470136F2E744F6000844F60008AB
:10C3E00044F6000848F6000802440346934200D190
:10C3F000704703F8011BF9E72DE9FF4755EC104B97
:10C40000002D0E4619462B46BBBF05F100431D46C5
:10C4100000232D230B700D9BDDF830A0914623F0F7
:10C420002008BCBF22461446B8F1460F05D0B8F12B
:10C43000450F00D10136022100E0032103AB019337
:10C4400002AB009345EC104B5346324600F0ECFC37
:10C45000B8F1470F074602D119F0010F22D0B8F109
:10C46000460F07EB060910D13B78302B0AD100228A
:10C47000002320462946FCF727FF18B9C6F101061C
:10C48000CAF80060DAF80030994400220023204600
:10C490002946FCF719FF08B1CDF80C903022039B18
:10C4A0004B4507D3039B0E9ADB1B3846136004B041
:10C4B000BDE8F087591C03911A70F0E7F7B5034601
:10C4C0000029B8BF494203F8022BB4BF2D222B220A
:10C4D000092942702ADD0DF10704A4460A27A64661
:10C4E0000A4691FBF7F607FB16153035632A04F16F
:10C4F000FF340EF8015C3146F1DC3031AEF102055B
:10C5000004F8011C441C294661450AD30DF10902B7
:10C51000A2EB0E02654588BF00221344181A03B02F
:10C52000F0BD11F8012B04F8012FEDE73023303175
:10C530008370C170031DF1E72DE9F04F2DED028BE3
:10C540008DB00C46DDF8608016461F46054601F0AA
:10C5500059FAD0F800A05046FCF73AFA00230A93A3
:10C5600023680593D8F8003094F818B0073323F007
:10C57000070303F10802C8F80020D3E90023C4E947
:10C580001223D4E9128929F000430793CDF81880CB
:10C5900008EE100A9F4BDDE906014FF0FF32FCF771
:10C5A000C5FE88BBDDE906019A4B4FF0FF32FCF770
:10C5B0009FFE48BB0022002340464946FCF78EFE02
:10C5C00010B12D2384F84330934B9448BBF1470FAF
:10C5D00094BF9846804603232361059B23F0040201
:10C5E00022604FF00009009733460BAA21462846E7
:10C5F00000F0D8F9013040F090804FF0FF300DB0DE
:10C60000BDEC028BBDE8F08F42464B4640464946A2
:10C61000FCF78CFE40B14B46002BBCBF2D2384F8A9
:10C6200043307F487F4BD1E763680BF0DF0206920F
:10C630005A1C3FD106236360059B616843F4806206
:10C64000002303930AABCDE901B309AB49EC108B8E
:10C65000009322600DF123032846FFF7CDFE069BD1
:10C660000999472B804608D1C81C02DB63689942B0
:10C6700041DDABF1020B5FFA8BFBBBF1650F20D8FC
:10C6800001395A4604F150000991FFF717FF0A9A41
:10C690001318012A8146236102DC2268D20701D5E2
:10C6A000013323619DF82330002B9CD02D2384F887
:10C6B000433098E7069A472ABED1002BBCD101230C
:10C6C000B9E7BBF1660F18D1002963680BDD216162
:10C6D00013B92268D00702D501330B442361A16549
:10C6E0004FF00009DEE713B92268D20701D5023303
:10C6F000F4E70123F2E74FF0670B0A9B994205DB51
:10C7000023682161D807EAD54B1CE7E70029D4BF8D
:10C71000C1F1020201221344E0E723685A0507D45D
:10C720002369424631462846B84701302CD164E798
:10C73000BBF1650F40F2E080D4E912010022002332
:10C74000FCF7C2FD002834D0374A01233146284681
:10C75000B84701303FF451AFDDE909239A4202DBCB
:10C760002368D80710D518EE103A524631462846AD
:10C77000B84701303FF441AF4FF0000804F11A0907
:10C780000A9B013B434509DC23689B0700F10581B7
:10C79000E0680B9B9842B8BF184630E701234A4631
:10C7A00031462846B84701303FF427AF08F1010869
:10C7B000E6E7099B002B39DC1B4A0123314628465A
:10C7C000B84701303FF419AFDDE90923134302D123
:10C7D0002368D907D8D518EE103A52463146284674
:10C7E000B84701303FF409AF4FF0000904F11A0ACD
:10C7F000099B5B424B4501DC0A9B92E701235246B1
:10C8000031462846B84701303FF4F7AE09F1010937
:10C81000EEE700BFFFFFEF7F64F2000868F2000858
:10C8200070F200086CF2000874F200080A9AA36D16
:10C830009A42A8BF1A46002A914637DC4FF0000BF7
:10C8400029EAE97904F11A02A36D0593A3EB090320
:10C850005B4533DCDDE909239A423BDB2368DA07D9
:10C8600038D40A9B059A09999A1AA3EB01099145B4
:10C87000A8BF9146B9F1000F35DC4FF0000829EA56
:10C88000E97904F11A0ADDE909239B1AA3EB0903EC
:10C8900043457FF779AF0123524631462846B847D2
:10C8A00001303FF4AAAE08F10108ECE71346314627
:10C8B00042462846B8470130C0D19EE601233146A2
:10C8C00028460592B84701303FF497AE059A0BF120
:10C8D000010BB9E718EE103A524631462846B847E0
:10C8E0000130BED189E6059A4B464244314628467E
:10C8F000B8470130C1D180E60A9A012A01DCDB0782
:10C9000038D50123424631462846B84701303FF426
:10C9100074AE18EE103A524631462846B8470130F8
:10C920003FF46BAED4E9120100220023FCF7CCFCEB
:10C93000D8B90A9B08F10102013B31462846B847A5
:10C9400001300ED159E60123524631462846B847F8
:10C9500001303FF452AE08F101080A9B013B434508
:10C96000F1DC4B4604F15002DCE64FF0000804F124
:10C970001A0AF2E701234246DFE701234A4631461D
:10C980002846B84701303FF438AE08F10108E368A3
:10C990000B995B1A4345F0DCFAE64FF0000804F10E
:10C9A0001909F4E72DE9F047164699468A680B699C
:10C9B000DDF820809342B8BF1346336091F84320DE
:10C9C00007460C460AB1013333602368990642BF1B
:10C9D000336802333360256815F0060506D104F18B
:10C9E000190AE36832689B1AAB4226DC94F84320AC
:10C9F000131E226818BF012392062BD404F14302B0
:10CA000049463846C04701301ED02368E568326881
:10CA100003F00603042B08BFAD1AA36822690CBFFC
:10CA200025EAE57500259342C4BF9B1AED18002640
:10CA30001A34B5421AD1002008E001235246494673
:10CA40003846C047013003D14FF0FF30BDE8F087D2
:10CA50000135C6E7E1185A1C302081F84300224412
:10CA600094F8451082F843100233C7E701232246A9
:10CA700049463846C0470130E6D00136D9E70000C4
:10CA80002DE9FF470F7E0C9D782F914680460C467E
:10CA90009A4601F1430207D8622F0AD8002F00F00E
:10CAA000D880582F00F0A38004F1420584F842702A
:10CAB0003AE0A7F16303152BF6D801A151F823F052
:10CAC00019CB00082DCB0008A9CA0008A9CA000884
:10CAD000A9CA0008A9CA00082DCB0008A9CA0008E5
:10CAE000A9CA0008A9CA0008A9CA000839CC0008C8
:10CAF0005DCB00081BCC0008A9CA0008A9CA000821
:10CB00005BCC0008A9CA00085DCB0008A9CA0008D0
:10CB1000A9CA000823CC00082B681A1D1B682A60CC
:10CB200004F1420584F842300123A3E0206829681B
:10CB3000060601F104030AD50E682B60002E03DA05
:10CB40002D23764284F843305E480A2319E00E68AC
:10CB50002B6010F0400F18BF36B2EFE72B6820684B
:10CB6000191D2960010601D51E6802E04606FBD5A5
:10CB70001E8854486F2F0CBF08230A23002184F815
:10CB800043106568A560002DA2BF216821F0040153
:10CB900021600EB9002D4DD01546B6FBF3F103FB15
:10CBA0001167C75D05F8017D3746BB420E46F4D9D3
:10CBB000082B0BD12368DE0708D5236961689942E9
:10CBC000DEBF302305F8013C05F1FF35521B226121
:10CBD000CDF800A04B4603AA21464046FFF7E2FEEF
:10CBE00001304CD14FF0FF3004B0BDE8F08735483C
:10CBF00081F845702968236851F8046B29601D0687
:10CC000014D5DF0744BF43F0200323601EB9236817
:10CC100023F0200323601023B0E7236843F02003B0
:10CC200023607823284884F84530E3E7590648BF55
:10CC3000B6B2E6E71546BBE72B6826686169181DA2
:10CC4000286035061B6801D5196002E07006FBD527
:10CC50001980002323611546BAE72B681A1D2A6044
:10CC60001D68626800212846FBF7BAFE08B1401B28
:10CC7000606063682361002384F84330A8E7236978
:10CC80002A4649464046D0470130ABD023689B072F
:10CC900013D4E068039B9842B8BF1846A4E7012369
:10CCA000324649464046D04701309BD00135E368C3
:10CCB00003995B1AAB42F2DCEBE7002504F119069D
:10CCC000F5E700BF76F2000887F200080EB400B561
:10CCD0009CB01DAB029006906FF00041094807918F
:10CCE0000491094953F8042B05910068019302A9A6
:10CCF00001F078FB029B00221A701CB05DF804EB77
:10CD000003B070470C0000200802FFFF2DE9F74F29
:10CD100003690C69A3420746C0F28180013C01F11E
:10CD2000140800F1140505EB8403019358F824302E
:10CD300055F8242001339A424FEA840B08EB84090A
:10CD4000B2FBF3F631D34FF0000E4046AC46F2464C
:10CD500050F8042B93B206FB03E34FEA134E9BB249
:10CD6000AAEB0303DCF800A0120C13FA8AF306FB0B
:10CD700002E20093009B4FEA124E92B2C2EB1A42BB
:10CD800002EB2342BDF80030814543EA02434CF8F0
:10CD9000043B4FEA224ADBD255F80B302BB9019BFA
:10CDA000043B9D421A462ED33C61384601F0C6F83A
:10CDB000002824DB013628464FF0000C58F8042BDD
:10CDC000D0F800E093B2ACEB0303120C13FA8EF32D
:10CDD000C2EB1E4202EB23429BB243EA0243C1452F
:10CDE00040F8043B4FEA224CE8D255F8242005EBEA
:10CDF000840322B9043B9D421A460AD33C61304663
:10CE000003B0BDE8F08F1268043B002ACCD1013C8E
:10CE1000C7E71268043B002AF0D1013CEBE7002091
:10CE2000EEE70000000000002DE9F04F2DED048B2F
:10CE300057EC106B93B0456ADDF88080069110EED8
:10CE400010AA044609920C93BB4675B9102000F055
:10CE5000DDFD0246606220B9A74BEA21A74801F038
:10CE6000D1FBC0E901550560C560636A196851B11D
:10CE70005A684A60012393408B60204600F01CFEF4
:10CE8000636A00221A603B1EAABF002323F0004BF6
:10CE9000C8F800309A4BBCBF0122C8F8002033EA22
:10CEA0000B031BD10C9A42F20F731360CBF31303E5
:10CEB000334300F09285219B63B9924B22E0924B61
:10CEC00001930833219A1360019813B0BDEC048BD1
:10CED000BDE8F08F8B4B01930333F3E7002200236F
:10CEE00050465946FCF7F0F94BEC19AB804658B167
:10CEF0000C9A01231360219B002B00F06B85834863
:10CF00001860431E0193DFE74BEC10AB10AA11A988
:10CF1000204601F0B9F8CBF30A5508EE100A002DAF
:10CF200000F0848019EE903AC3F3130343F07F5767
:10CF3000564647F44017A5F2FF35CDF83880744BBC
:10CF4000002230463946FBF79FFD65A3D3E9002355
:10CF5000FBF752FF64A3D3E90023FBF797FD0646D6
:10CF600028460F46FBF7DEFE61A3D3E90023FBF75B
:10CF700043FF02460B4630463946FBF787FD06461F
:10CF80000F46FCF7E9F900220090002330463946AD
:10CF9000FCF7A4F950B10098FBF7C4FE32463B46BB
:10CFA000FCF792F910B9009B013B0093009B162BF4
:10CFB0005AD8009A574B03EBC203D3E9002351EC34
:10CFC000190BFCF78BF9002850D0009B013B009314
:10CFD00000230B93109B5D1B6B1E059345BFC5F192
:10CFE00001030493002300234CBF05930493009B8B
:10CFF000002B3DDB059B009A0A9213440593002306
:10D000000793069B092B00F28980052BC4BF043BC4
:10D010000693069BA3F10203CCBF00250125032B39
:10D0200000F28780DFE803F02D3A3859DDE910532C
:10D030001D4405F23243202BC1BFC3F1400305F26A
:10D0400012400BFA03F326FA00F0DABFC3F1200313
:10D0500006FA03F01843FBF755FE01230646A1F13B
:10D06000F877013D0E936AE70123B2E70B90B1E731
:10D07000049B009A9B1A04935342079300230A933C
:10D08000BFE700230893099B002B55DC0123CDE962
:10D0900002331A4609920CE00123F3E70023099AB0
:10D0A0000893009B134402930133012B0393B8BFF1
:10D0B0000123606A00224260042202F114069E42AB
:10D0C00041683DD9204600F0B7FC019000283BD1D3
:10D0D000114B02464FF4D571C0E60123DFE700BFD4
:10D0E00061436F63A787D23FB3C8608B288AC63F6E
:10D0F000FB799F501344D33FA5F20008BCF200080F
:10D100000000F07FA1F2000898F2000875F2000814
:10D110000000F83FB0F3000817F3000801250023D2
:10D12000069308954FF0FF33CDE902330022122316
:10D13000B0E701230893F5E7099BCDE90233B8E78F
:10D14000013141605200B8E7636A019A1A60039B9B
:10D150000E2B00F29D80002D00F09A80009B002B8A
:10D1600032DDB74A03F00F0302EBC303D3E90089B2
:10D17000009BD8054FEA231716D5B24B51EC190B7B
:10D18000D3E90823FBF762FF07F00F0782468B46BF
:10D190000325AC4E57B942464B4650465946FBF71D
:10D1A00055FF82468B4628E00225F2E7F90708D5AD
:10D1B00040464946D6E90023FBF71EFE013580466E
:10D1C00089467F100836E5E700F09B80009B9D4F65
:10D1D0005E429B4B06F00F0203EBC203D3E9002330
:10D1E00051EC190BFBF708FE361182468B460023E3
:10D1F0000225002E7AD1002BD3D10B9B002B00F0FF
:10D200008280914B002250465946FCF767F800286F
:10D2100079D0039B002B76D0029B002B36DD009B40
:10D22000504659465F1E0022884BFBF7E5FD029EE3
:10D2300082468B4601352846FBF774FD52465B4615
:10D24000FBF7DAFD824B0022FBF720FCD046D946E3
:10D250008246A1F1507B002E58D17E4B00224046E1
:10D260004946FBF711FC52465B4680468946FCF76F
:10D2700053F8002840F0958252460BF10043404697
:10D280004946FCF72BF8002840F089825BEC19AB8B
:10D29000119B002BC0F24881009A0E2A00F34481B2
:10D2A000674B03EBC203D3E90089099B002B80F293
:10D2B000D580039B002B00F3D18040F06F82654B3B
:10D2C000002240464946FBF797FD52465B46FCF775
:10D2D00019F8039E3746002840F04582019D31230E
:10D2E00005F8013B009B0133009340E2F20705D5AE
:10D2F000D7E90023FBF780FD0135012376100837BD
:10D3000077E7022579E7009F039E94E701994C4B4C
:10D3100031440D91089903EBC60353E90223002918
:10D3200043D04D490020FBF791FE52465B46FBF788
:10D33000ABFB019D82468B4649464046FCF70CF804
:10D340000646FBF7EFFC02460B4640464946FBF714
:10D350009BFB303605F8016B52465B46804689469A
:10D36000FBF7BCFF002863D142464B4636490020FC
:10D37000FBF78AFB52465B46FBF7B0FF002840F004
:10D38000B5800D9B9D4281D0304B002250465946BE
:10D39000FBF732FD2D4B82468B4640464946002224
:10D3A000FBF72AFD80468946C6E750465946FBF7FB
:10D3B00023FD0D9B019D0F9382468B4649464046B7
:10D3C000FBF7CAFF0646FBF7ADFC303602460B46BC
:10D3D00040464946FBF758FB05F8016B0D9B9D4203
:10D3E000804689464FF0000224D11B4B50465946D7
:10D3F000FBF74CFB02460B4640464946FBF78CFFC9
:10D40000002873D152465B4613490020FBF73CFBD2
:10D4100002460B4640464946FBF760FF00283FF4B2
:10D4200035AF0F9D6B1E0F9315F8013C302BF8D0D4
:10D43000009749E0054BFBF7DFFC80468946BDE7D6
:10D44000B0F3000888F300080000F03F000024401B
:10D4500000001C40000014400000E03F019D5646C3
:10D460005F4642464B4630463946FBF7EFFDFBF739
:10D4700073FF8246FBF756FC42464B46FBF7BCFC6B
:10D4800002460B46304639460AF13006FBF7FCFAF5
:10D4900005F8016B019E039FAE1BB74202460B4687
:10D4A00035D1FBF7F3FA42464B4606460F46FBF7EB
:10D4B00033FFD0B942464B4630463946FBF704FFAE
:10D4C00010B11AF0010F10D1204618EE101A00F01A
:10D4D000F3FA002300982B700C9B01301860219BFD
:10D4E000002B3FF4F1AC1D60EEE4009F2B461D467F
:10D4F00013F8012D392A06D1019A9A42F7D10199E0
:10D50000302201370A701A7801321A7090E7A64B60
:10D510000022FBF771FC0022002306460F46FBF7B2
:10D52000D3FE00289DD0CFE7089A002A00F0D780CC
:10D53000069A012A00F3BA800E9A002A00F0B280FF
:10D5400003F23343079E049D049A1A440492059AF9
:10D5500001211A442046059200F066FB0746002D83
:10D560000CDD059B002B09DDAB42049AA8BF2B46BE
:10D57000D21A0492059AED1AD31A0593079B1BB38E
:10D58000089B002B00F0AF80002E13DD3946324699
:10D59000204600F009FC18EE102A014607462046F6
:10D5A00000F058FB18EE101A8046204600F084FA6E
:10D5B00008EE108A079B9A1B06D018EE101A204618
:10D5C00000F0F2FB08EE100A0121204600F02CFBCF
:10D5D0000A9B002B064640F388801A4601462046E7
:10D5E00000F0E2FB069B012B064640F381804FF0E2
:10D5F0000008336906EB8303186900F0C5FAC0F12F
:10D600002000059B184410F01F0000F09280C0F12C
:10D610002003042B40F38A80C0F11C00049B0344C8
:10D620000493059B034405440593049B002B07DDED
:10D6300018EE101A1A46204600F010FC08EE100AE8
:10D64000059B002B05DD31461A46204600F006FCFE
:10D6500006460B9B002B6ED018EE100A314600F0E8
:10D660006DFC002867DA009B013B18EE101A00934E
:10D670000A220023204600F041FA089B08EE100A17
:10D68000002B00F0B181002339460A22204600F029
:10D6900035FA029B002B074600F38E80069B022B77
:10D6A00051DC89E0109BC3F136034BE7039B5E1E00
:10D6B000079BB342BFBF079B0796F21A0A9BB6BFF0
:10D6C0009B189E1B0A93039BB8BF0026002BB7BF75
:10D6D000DDE90323DDE903359D1A002334E7079EC6
:10D6E000049D089F3BE7079A67E7069B012B18DC20
:10D6F000BAF1000F15D1CBF3130393B92BF000430C
:10D700001B0D1B0583B1049B01330493059B01335F
:10D7100005934FF001080A9B002B7FF46AAF0120AC
:10D720006FE74FF00008F6E79846F4E73FF47DAF67
:10D7300018461C3072E7039B002B37DC069B022B3C
:10D7400034DD039B0293029B6BB9314605222046D0
:10D7500000F0D4F90146064618EE100A00F0EEFB80
:10D7600000283FF7BBAD099B019DDB4300934FF0C1
:10D7700000083146204600F09FF9002F3FF4A4AE88
:10D78000B8F1000F05D0B84503D04146204600F05F
:10D7900093F93946204600F08FF995E60026374682
:10D7A000E1E70097374699E500002440089B002BED
:10D7B00000F0CA80039B0293002D05DD39462A46FE
:10D7C000204600F04BFB0746B8F1000F5BD07968AC
:10D7D000204600F031F9054628B9874B024640F251
:10D7E000EA21FFF73BBB3A690232920007F10C01D4
:10D7F0000C3000F013F901222946204600F02EFBE0
:10D80000019B03F10109DDE90123134405930AF0AB
:10D810000103B84604930746314618EE100AFFF795
:10D8200075FA4146029000F1300A18EE100A00F035
:10D8300085FB3A4603903146204600F09BFBC268C8
:10D8400009F1FF3B054602BB014618EE100A00F045
:10D8500075FB024629462046079200F02DF9DDE9C6
:10D86000063243EA0201049B0B434D460FD1BAF145
:10D87000390F2AD0039B002B02DD029B03F1310AF2
:10D880008BF800A075E73846BAE70122E2E7039B70
:10D89000002B04DB06990B4304990B4322D1002A89
:10D8A000EEDD18EE101A0122204600F0D7FA3146BC
:10D8B00008EE100A00F042FB002803DCE0D11AF069
:10D8C000010FDDD0BAF1390FD7D139238BF80030F1
:10D8D0002B461D46013B15F8012C392A71D0013227
:10D8E0001A7046E7002A07DDBAF1390FEDD00AF1C8
:10D8F00001038BF800303CE7059B09F801AC994522
:10D9000047D018EE101A00230A22204600F0F6F83D
:10D91000B84508EE100A4FF000034FF00A024146E6
:10D92000204606D100F0EAF88046074609F10109D1
:10D9300072E700F0E3F83946804600230A222046C9
:10D9400000F0DCF80746F1E7039B0293019D18EE17
:10D95000100A3146FFF7DAF900F1300A019B05F8A9
:10D9600001ABEA1A029B934209DD18EE101A00235C
:10D970000A22204600F0C2F808EE100AE7E7029BF0
:10D98000002BC8BF1D46019BD8BF01251D444FF089
:10D99000000818EE101A0122204600F05FFA314606
:10D9A00008EE100A00F0CAFA002891DC02D11AF041
:10D9B000010F8DD12B461D4613F8012D302AFAD0C8
:10D9C000D7E6019A9A4284D1009B01330093312318
:10D9D0001370CEE6094BFFF795BA219B002B7FF41D
:10D9E0006EAA074BFFF78EBA029B002BAEDC069B9C
:10D9F000022B3FF7A8AEA9E717F3000874F200085E
:10DA000098F200080048704760010020024B014670
:10DA1000186800F017BC00BF0C0000200A449142B7
:10DA200000F1FF3300D1704710B511F8014B03F836
:10DA3000014F9142F9D110BD70B5466A04460D46BA
:10DA400076B91020FFF7E2FF0246606220B9184B5A
:10DA50001848662100F0D6FDC0E901660660C66080
:10DA6000666AF36883B1636ADB6853F82500B8B966
:10DA7000012101FA05F6721D9200204600F060FBBC
:10DA800060B1C0E901560EE021220421204600F0D9
:10DA900057FB636AF060DB68002BE4D1002070BDA7
:10DAA000026843F825200023C0E90333F7E700BFED
:10DAB000A5F2000828F3000870B5466A05460C4632
:10DAC00076B91020FFF7A2FF0246686220B9094B21
:10DAD00009488A2100F096FDC0E901660660C6602B
:10DAE0003CB16B6A6268DB6853F82210216043F82E
:10DAF000224070BDA5F2000828F300082DE9F0418E
:10DB00000D6907460C461E4601F1140C0020DCF896
:10DB1000003099B202FB01611E0C0B0C02FB0633B4
:10DB200089B2013001EB034185424CF8041B4FEAF6
:10DB30001346ECDC0EB3A368AB4219DC61683846CF
:10DB40000131FFF779FF804628B902460C4B0D489A
:10DB5000B52100F057FD2269023204F10C01920058
:10DB60000C30FFF75BFF21463846FFF7A5FF444620
:10DB700004EB850301355E6125612046BDE8F08137
:10DB800017F3000828F30008030C1B04D3B90004A2
:10DB9000102310F07F4F04BF0002083310F0704FC5
:10DBA00004BF0001043310F0404F04BF8000023373
:10DBB000002805DB10F0804F03F1010308BF20238C
:10DBC000184670470023E4E7036813F00702014694
:10DBD0000BD0DA0723D4980749BF5B089B080120C4
:10DBE0000B605CBF0B600220704798B2A8B91B0C99
:10DBF0001020DAB20AB908301B0A1A0704BF1B0941
:10DC000004309A0704BF9B080230DA0703D45B088C
:10DC100000F1010005D00B6070471046E9E70020D5
:10DC2000704720207047000010B50C460121FFF717
:10DC300003FF024628B9054B05484FF4A07100F0D8
:10DC4000E1FC01234461036110BD00BF17F300082C
:10DC500028F300082DE9F04F91460A69D9F81030F1
:10DC60009A42B8BF0B460C46BCBF4C469946276942
:10DC7000D9F810A0A368616807EB0A06B34285B023
:10DC8000B8BF0131FFF7D8FE30B90246444B4548D2
:10DC900040F25D1100F0B6FC00F1140505EB8608BA
:10DCA0002B460022434521D304F1140303EB8707DD
:10DCB00009F1140303EB8A0202923A1B153A22F08F
:10DCC0000302043204F115018F4238BF042201928D
:10DCD000029A03939A420CD8002E03DD58F8043DB3
:10DCE000002B5AD0066105B0BDE8F08F43F8042B35
:10DCF000D8E7B3F800A0BAF1000F24D004F1140E55
:10DD0000A9464FF0000C5EF8042BD9F800101FFA5A
:10DD100082FB89B20AFB0B114FEA124BD9F80020A3
:10DD200061444FEA124C0AFB0BC202EB114289B26A
:10DD300041EA0241774549F8041B4FEA124CE2D808
:10DD4000019A45F802C0039AB2F802900433B9F17F
:10DD5000000F20D0296804F1140CAE464FF0000AE1
:10DD6000BCF800B0BEF8022009FB0B22924489B235
:10DD700041EA0A414EF8041B5CF8042BBEF800107F
:10DD8000120C09FB021101EB1A4167454FEA114AD7
:10DD9000E6D8019AA95004359AE7013E9CE700BFF6
:10DDA00017F3000828F300082DE9F843154612F090
:10DDB000030206460F4607D0254C013A002354F8CB
:10DDC0002220FFF79BFE0746AD103DD0746A7CB958
:10DDD0001020FFF71BFE0246706228B91D4B1E483B
:10DDE0004FF4D77100F00EFCC0E901440460C46038
:10DDF000D6F82480D8F808404CB940F2712130465A
:10DE0000FFF712FF0023C8F80800044603604FF034
:10DE10000009EB070AD5394622463046FFF71AFFBC
:10DE2000394680463046FFF747FE47466D100BD017
:10DE3000206838B9224621463046FFF70BFF2060A4
:10DE4000C0F800900446E4E73846BDE8F88300BF18
:10DE500078F40008A5F2000828F300082DE9F0473F
:10DE60000C464968236903EB6218A368074691468C
:10DE70004FEA621A08F10106B3420BDB3846FFF79E
:10DE8000DBFD054648B902462A4B2B4840F2D91122
:10DE900000F0B8FB01315B00EEE7002300F1140154
:10DEA00000F110021846534537DB20692AEAEA7A66
:10DEB00004F1140319F01F0901EB8A0103EB800040
:10DEC0002FD0C9F1200E8A464FF0000C1A6802FAD2
:10DED00009F242EA0C024AF8042B53F8042B984248
:10DEE00022FA0EFCF2D8031B153B23F00303043384
:10DEF00004F11502904238BF042341F803C0BCF17D
:10DF0000000F01D008F10206013E38462E6121467D
:10DF1000FFF7D2FD2846BDE8F08742F8040F013331
:10DF2000C1E7043953F8042B41F8042F9842F9D87B
:10DF3000EAE700BF17F3000828F3000830B50269CC
:10DF40000C69121B0ED100F11403143103EB840091
:10DF500001EB840150F8045D51F8044DA54203D053
:10DF600005D30122104630BD8342F3D3FAE74FF0C8
:10DF7000FF32F7E72DE9F84F0C46064611462046DA
:10DF80009046FFF7DBFF051E10D129463046FFF70C
:10DF900053FD30B93A4B024640F23221394800F085
:10DFA00031FB0123C0E90435BDE8F88FA4BF434627
:10DFB000A0463046D8F80410A6BF1C46002501250F
:10DFC000FFF73AFD20B92E4B02464FF41071E5E7FA
:10DFD000D8F810702669C56004F1140908F1140519
:10DFE00000F1140E05EB870C09EB860608F1100210
:10DFF000F246002159F8043B52F804BF1FFA83F897
:10E0000011FA8BF11B0CA1EB0808C3EB1B4303EBCC
:10E0100028431FFA88F819144E4548EA03434AF882
:10E02000043BE7D8331B153B23F0030304331534BB
:10E03000A64238BF04231D4473449E462E466645BF
:10E040000ED30CF10302521B22F00302033DAC4538
:10E0500038BF00221A4452F8043D7BB10761A3E7A0
:10E0600056F8048B11FA88F2141404EB184492B297
:10E0700042EA04424EF8042B2114E0E7013FEAE7AC
:10E0800017F3000828F300082DE9F743894601211A
:10E0900057EC106B9046FFF7CFFC044630B90246B0
:10E0A000254B264840F20A3100F0ACFAC7F30A5576
:10E0B000C7F3130335BB002E019328D068460096A2
:10E0C000FFF782FD009900B3019AC0F1200302FA24
:10E0D00003F30B43C24063610192019BA361002BD8
:10E0E00014BF022201222261D5B1A5F233450544B5
:10E0F000C9F80050C0F13500C8F80000204603B050
:10E10000BDE8F08343F48013D5E76161E5E701A83A
:10E11000FFF75AFD019B6361012222612030E3E792
:10E1200004EB8203A0F23240C9F800001869FFF73F
:10E130002BFDC0EB4210DFE717F3000828F30008BF
:10E1400037B5A1FB02244CB91146019200F07AF8D0
:10E15000019A054630B9284603B030BD0C22026052
:10E160000025F8E72146FEF73FF9F4E737B5002927
:10E1700044D051F8043C0190002BA1F10404B8BF35
:10E18000E41800F09BFA1E4A0198136833B96360E3
:10E19000146003B0BDE8304000F096BAA34208D93D
:10E1A000256861198B4201BF19685B6849192160B4
:10E1B000EDE71A465B680BB1A342FAD9116855180E
:10E1C000A5420BD1246821445418A3421160E0D128
:10E1D0001C685B68536021441160DAE702D90C23A4
:10E1E0000360D6E7256861198B4204BF19685B6834
:10E1F000636004BF491921605460CAE703B030BDB1
:10E200000803002070B50E4E0C463168054611B962
:10E2100000F0E8F930602146284600F0E3F9431C9D
:10E220000AD0C41C24F00304A04207D0211A2846B7
:10E2300000F0D8F9013001D14FF0FF34204670BD15
:10E240000C0300202DE9F041CD1C25F00305083515
:10E250000C2D38BF0C25002D074601DBA94205D93E
:10E260000C233B6000263046BDE8F0812E4E00F0C6
:10E2700025FA33681C4634BB29463846FFF7C2FFEF
:10E28000431C04464DD134682646002E40D12368F5
:10E290003146384604EB030800F0A4F980453AD132
:10E2A000216803356D1A25F0030508350C2D38BF9C
:10E2B0000C2529463846FFF7A5FF01302BD02368EF
:10E2C0002B4423600EE02268521B1ED40B2A16D961
:10E2D0006119A342256018BF5960636808BF3160A7
